S0130000636F6465646F6E67686F322E73726563C5
S11300000C942A000C9447000C9447000C9447006D
S11300100C9447000C9447000C9447000C94470040
S11300200C9447000C9447000C9447000C94470030
S11300300C9447000C9447000C9447000C94470020
S11300400C9447000C9447000C9447000C94470010
S11300500C94470011241FBECFE5D8E0DEBFCDBF0E
S113006011E0A0E6B0E0E8E4F0E102C005900D92F2
S1130070A231B107D9F721E0A2E1B1E001C01D929C
S1130080A833B207E1F70E9480020C9422080C9472
S113009000009C0123703327232B59F464E670E09D
S11300A00E941005892B39F46370772781E0672B50
S11300B019F080E0089581E008959598969888BB9A
S11300C0949A8CEC9AE00197F1F700C000009498A0
S11300D08CEC9AE00197F1F700C000000895959820
S11300E0969A88BB949A8CEC9AE00197F1F700C039
S11300F0000094988CEC9AE00197F1F700C000009E
S11301000895CF93DF93EC018881882331F0219601
S11301100E946F0089918111FBCFDF91CF910895E7
S113012011B880E280B9089594EA96BF06B607FE36
S1130130FDCF91B1987F983071F483B984E886BF7C
S113014006B607FEFDCF81B1887F883131F0803259
S113015031F083E0089580E0089581E0089582E01D
S1130160089594EA96BF06B607FEFDCF91B1987F35
S1130170903171F483B984E886BF06B607FEFDCFDB
S113018081B1887F803431F0803231F083E008958A
S113019080E0089581E0089582E0089584E986BFAF
S11301A006B604FCFDCF089583B984E886BF06B67D
S11301B007FEFDCF81B1887F883221F0803321F0A2
S11301C082E0089580E0089581E0089584EC86BF7C
S11301D006B607FEFDCF83B190E0089584E886BF9C
S11301E006B607FEFDCF83B190E00895982F92954F
S11301F09F70990F292F220F220F920F8F70890F52
S113020008959DEC899F912D112496959695969528
S113021020E1929FA0011124990F292F220F220F70
S1130220920F891B842B0895FF920F931F93CF93F2
S1130230DF93F82E862FD42F122F0E940101C82F8E
S11302408D2F0E940101D82F802F0E940101082FB9
S1130250812F0E940101182F80ED0E9494008F2DA0
S11302600E94D400802F0E94D400812F0E94D400C9
S11302708D2F0E94D4008C2F0E94D4000E94CE00A7
S1130280DF91CF911F910F91FF9008950F931F93CA
S1130290CF93DF93082F862FD42F122F0E940101B2
S11302A0C82F8D2F0E940101D82F812F0E94010198
S11302B0182F80ED0E949400802F0E94D400812F7B
S11302C00E94D4008D2F0E94D4008C2F0E94D40051
S11302D00E94CE00DF91CF911F910F910895CF938B
S11302E0C82F80ED0E9494008C2F0E94D40081EDD1
S11302F00E94B1000E94E60090931D0180931C01AE
S11303000E94E60090931F0180931E010E94EE005C
S113031090932301809322010E94CE00CF910895EF
S1130320CF93C82F80ED0E9494008C2F0E94D4009C
S113033081ED0E94B1000E94E60090932D0180930C
S11303402C010E94E60090933101809330010E94B9
S1130350E60090931B0180931A010E94EE00909393
S11303602B0180932A010E94CE00CF9108959F9281
S1130370AF92BF92CF92DF92EF92FF920F931F93AF
S1130380CF93DF93CDB7DEB72A970FB6F894DEBFCD
S11303900FBECDBF7C018B015A01922E81E00E94D9
S11303A05D008CEC9AE00197F1F700C0000080E852
S11303B00E945D00C7010E948100ECECFAE03197D5
S11303C0F1F700C000000F2EFEE6CF2EF0E0DF2E86
S11303D0F02DCE0101967C01892D0E945D00ECEC8C
S11303E0FAE03197F1F700C00000F80181818F93A2
S11303F080818F93DF92CF92FF92EF920E94380513
S1130400C7010E9481008CEC9AE00197F1F700C0CB
S113041000000F900F900F900F900F900F90C99BBA
S113042013C0F801808191818A159B0524F40196FB
S11304309183808303C0F801118210828FEF9BE6C1
S11304400197F1F700C00000CA9B13C0F801808136
S113045091811816190624F401979183808303C0AF
S1130460F801B182A0828CEC90E40197F1F700C00E
S11304700000C89BB1CF2A960FB6F894DEBF0FBE1A
S1130480CDBFDF91CF911F910F91FF90EF90DF903F
S1130490CF90BF90AF909F9008958230910541F422
S11304A0CB010E944900892BC9F48CE190E00895A6
S11304B09C012D7F21303105A1F085309105A1F0FB
S11304C09C01275031092230310588F08A3091058A
S11304D089F00C9791F08EE190E008958DE190E021
S11304E008958FE190E008958FE190E008958FE101
S11304F090E008958FE190E008958FE190E00895F1
S1130500CF93DF93CDB7DEB7AD970FB6F894DEBFC8
S11305100FBECDBF8EE0E0E6F0E0DE015F96019015
S11305200D928A95E1F70E9490008FEF8ABB87BBFA
S113053081B3806781BB81E00E945D008CEC9AE00E
S11305400197F1F700C0000088E30E945D00ECEC25
S1130550FAE03197F1F700C000008CE00E945D00E2
S11305608CEC9AE00197F1F700C0000083E790E07B
S11305700E9481009FEFEFE6F8E09150E040F040E8
S1130580E1F700C0000081E00E945D00CE01019609
S11305905C010F2EF4E88F2EF0E09F2EF02D7E01EB
S11305A09BE0E90EF11C0F2EF8E9CF2EF0E0DF2ED0
S11305B0F02D0F2EF8E16F2EF1E07F2EF02D0F2E8F
S11305C0F0E22F2EF1E03F2EF02D1A2DBDA60F2EB6
S11305D0FDED4F2EF0E05F2EF02D80E80E945D00CF
S11305E083E00E949001ECECFAE03197F1F700C04F
S11305F00000E0912C01F0912D013197EE0FFF1FC7
S1130600EA0DFB1D878D8F93868D8F9380912B012F
S11306108F9380912A018F9380911B018F938091F6
S11306201A018F93809131018F93809130018F93C0
S11306309F928F92FF92EF920E943805C7010E9409
S113064081008CEC9AE00197F1F700C000000FB62E
S1130650F894DEBF0FBECDBF80912201909123019B
S113066048970CF43FC080E80E945D0083E00E943C
S113067090018CEC9AE00197F1F700C00000E09142
S11306802C01F0912D013197EE0FFF1FEA0DFB1D98
S1130690878D8F93868D8F9380912B018F9380917B
S11306A02A018F9380911B018F9380911A018F935C
S11306B0809131018F93809130018F939F928F921B
S11306C0FF92EF920E943805C7010E948100ECEC72
S11306D0FAE03197F1F700C000000FB6F894DEBFDE
S11306E00FBECDBF80E00E946F01ECECFAE03197C1
S11306F0F1F700C0000080911D018F9380911C01CF
S11307008F9380911F018F9380911E018F9380910D
S11307102201909123018F7399279F938F93DF92E6
S1130720CF92FF92EF920E94380580EC0E945D0008
S1130730C7010E9481008CEC9AE00197F1F700C098
S1130740000089EC0E945D000FB6F894DEBF0FBE76
S1130750CDBFCD9B2DC088EA90E00E948100CB9B49
S11307600AC0CF9908C01092210110922001109262
S1130770190110921801F30180810E94010190E097
S113078020912201309123018217930779F4F1011A
S113079080810E94010190E020911E0130911F018F
S11307A08217930719F48BB31BBA07C0DF9A05C0ED
S11307B08DEA90E00E948100DF9ACC9BF5C0C89B33
S11307C0F3C080911C010E94F60090E090932901EF
S11307D08093280180911E010E94F60090E090937E
S11307E0330180933201809122010E94F60090E04F
S11307F0909335018093340180912C010E94F6007E
S113080090E090932F0180932E01809130010E94FB
S1130810F60090E0909325018093240180911A01C1
S11308200E94F60090E09093370180933601809106
S11308302A010E94F60090E090931701809316011C
S113084025E847E150E064E371E081EB90E00E9429
S1130850B70127E84BE350E062E371E08DEE90E0EE
S11308600E94B70127E84BE350E068E271E088EBAF
S113087090E00E94B70125E844E650E066E171E0AB
S113088081EC90E00E94B70126E84CE050E066E37A
S113089071E088EC90E00E94B7016091360170919C
S11308A0370180911601909117010E944D0225E8AD
S11308B0AC0164E271E080ED90E00E94B70181E058
S11308C00E945D0080E80E945D0087ED90E00E9438
S11308D0810084E80E945D008CEC9AE00197F1F7B6
S11308E000C00000E0912E01F0912F013197EE0F2E
S11308F0FF1FEA0DFB1D878D8F93868D8F935F926B
S11309004F92BF92AF920E943805812F9DA50E94FD
S113091081000F900F900F900F900F900F90C99B34
S113092014C080912E0190912F018730910534F4E9
S1130930019690932F0180932E0107C010922F01EE
S113094010922E01CA9910C015C0CA9B13C0809181
S11309502E0190912F011816190634F401979093E3
S11309602F0180932E0106C0E6E0F0E0F0932F0102
S1130970E0932E01C89BADCF81E00E945D002091E1
S11309802801409132016091340180E00E944601C7
S113099000912E01209124014091360160911601AD
S11309A083E00E94140119CECC9956CEC89B54CE34
S11309B0809122010E94F60090E090932701809399
S11309C0260127E847E150E066E271E082EE90E01C
S11309D00E94B701809126019091270190931901FB
S11309E08093180180911E010E94F60090E090937C
S11309F013018093120129E84BE350E062E171E0B6
S1130A008BEE90E00E94B701809112019091130146
S1130A10909321018093200181E00E945D00DDCD4F
S1130A2097FB072E16F4009407D077FD09D00E9497
S1130A30240507FC05D03EF4909581959F4F0895B9
S1130A40709561957F4F0895AA1BBB1B51E107C0A8
S1130A50AA1FBB1FA617B70710F0A61BB70B881F4A
S1130A60991F5A95A9F780959095BC01CD010895D9
S1130A70AEE0B0E0EEE3F5E00C94F9070D891E89D1
S1130A8086E08C831A8309838FEF9FE79E838D838F
S1130A90AE01475E5F4F6F89788DCE0101960E944B
S1130AA05A05EF81F885E00FF11F10822E96E4E0DD
S1130AB00C941508ABE0B0E0E0E6F5E00C94EB072D
S1130AC06C017B018A01FC0117821682838181FFFC
S1130AD0CCC1CE0101963C01F6019381F70193FD4F
S1130AE0859193FF81917F01882309F4BAC18532EE
S1130AF039F493FD859193FF81917F01853229F427
S1130B00B60190E00E945107E7CF912C212C312CA3
S1130B10FFE1F315D8F08B3279F038F4803279F0B4
S1130B208332A1F4232D20611DC08D3261F0803306
S1130B3069F4232D216016C0832D8260382EE32DA5
S1130B40E4603E2E2AC0F32DF8601DC037FC2DC092
S1130B5020ED280F2A3040F08E32B9F436FC81C1E2
S1130B60232D2064322E19C036FE06C08AE0989EDA
S1130B70200D1124922E11C0EAE02E9E200D112486
S1130B80222EF32DF0623F2E08C08C3621F4832DE3
S1130B908068382E02C0883641F4F70193FD8591B0
S1130BA093FF81917F018111B3CF982F9F7D95543D
S1130BB0933028F40C5F1F4F9FE399830DC0833655
S1130BC031F0833771F0833509F059C021C0F80141
S1130BD0808189830E5F1F4F88248394912C530155
S1130BE013C02801F2E04F0E511CF801A080B1801F
S1130BF036FE03C0692D70E002C06FEF7FEFC501C0
S1130C000E9446074C018201F32DFF773F2E16C048
S1130C10280122E0420E511CF801A080B18036FE6A
S1130C2003C0692D70E002C06FEF7FEFC5010E9421
S1130C303B074C01F32DF0683F2E820133FC1BC0AF
S1130C40822D90E088169906B0F4B60180E290E017
S1130C500E9451072A94F4CFF50137FC859137FEA1
S1130C6081915F01B60190E00E94510721102A94FE
S1130C7021E0821A91088114910471F7E8C0843646
S1130C8011F0893641F5F80137FE07C060817181A2
S1130C90828193810C5F1F4F08C060817181072E90
S1130CA0000C880B990B0E5F1F4FF32DFF763F2E20
S1130CB097FF09C090958095709561957F4F8F4FF0
S1130CC09F4FF0683F2E2AE030E0A3010E948D0779
S1130CD0882E861845C0853731F4232D2F7EB22EF9
S1130CE02AE030E025C0932D997FB92E8F36C1F0CC
S1130CF018F4883579F0B5C0803719F0883721F0B9
S1130D00B0C0E92FE061BE2EB4FE0DC0FB2DF4602F
S1130D10BF2E09C034FE0AC0292F2660B22E06C099
S1130D2028E030E005C020E130E002C020E132E0FC
S1130D30F801B7FE07C060817181828193810C5FE5
S1130D401F4F06C06081718180E090E00E5F1F4FED
S1130D50A3010E948D07882E8618FB2DFF773F2E56
S1130D6036FE0DC0232D2E7FA22E891458F434FE96
S1130D700BC032FC09C0832D8E7EA82E05C0B82C72
S1130D80A32C03C0B82C01C0B92CA4FE0FC0FE01D3
S1130D90E80DF11D8081803321F49A2D997EA92ECE
S1130DA009C0A2FE06C0B394B39404C08A2D867809
S1130DB009F0B394A3FC11C0A0FE06C0B21488F4D9
S1130DC0280C922C9B180EC0B21460F4B60180E279
S1130DD090E00E945107B394F7CFB21418F42B1883
S1130DE002C0982C212CA4FE10C0B60180E390E030
S1130DF00E945107A2FE17C0A1FC03C088E790E03F
S1130E0002C088E590E0B6010CC08A2D867859F0BE
S1130E10A1FE02C08BE201C080E2A7FC8DE2B60114
S1130E2090E00E945107891438F4B60180E390E001
S1130E300E9451079A94F7CF8A94F301E80DF11DAB
S1130E408081B60190E00E9451078110F5CF2220E5
S1130E5009F442CEB60180E290E00E9451072A9440
S1130E60F6CFF6018681978102C08FEF9FEF2B9614
S1130E70E2E10C940708FC010590615070400110F8
S1130E80D8F7809590958E0F9F1F0895FC016150AF
S1130E90704001900110D8F7809590958E0F9F1F98
S1130EA008950F931F93CF93DF93FB01238121FDBB
S1130EB003C08FEF9FEF2CC022FF16C046815781DD
S1130EC0248135814217530744F4A081B1819D01E7
S1130ED02F5F3F4F318320838C93268137812F5F8F
S1130EE03F4F3783268314C08B01EC01FB01008440
S1130EF0F185E02D0995892BE1F6D80116968D919F
S1130F009C911797019617969C938E931697CE01F2
S1130F10DF91CF911F910F910895FA01AA272830EC
S1130F2051F1203181F1E8946F936E7F6E5F7F4FB2
S1130F308F4F9F4FAF4FB1E03ED0B4E03CD0670F2E
S1130F40781F891F9A1FA11D680F791F8A1F911D81
S1130F50A11D6A0F711D811D911DA11D20D009F4D1
S1130F6068943F912AE0269F11243019305D319313
S1130F70DEF6CF010895462F4770405D4193B3E0FC
S1130F800FD0C9F7F6CF462F4F70405D4A3318F0A3
S1130F90495D31FD4052419302D0A9F7EACFB4E054
S1130FA0A6959795879577956795BA95C9F700970C
S1130FB06105710508959B01AC010A2E06945795AD
S1130FC0479537952795BA95C9F7620F731F841F04
S1130FD0951FA01D08952F923F924F925F926F929A
S1130FE07F928F929F92AF92BF92CF92DF92EF92B5
S1130FF0FF920F931F93CF93DF93CDB7DEB7CA1B36
S1131000DB0B0FB6F894DEBF0FBECDBF09942A8860
S1131010398848885F846E847D848C849B84AA8408
S1131020B984C884DF80EE80FD800C811B81AA8195
S1131030B981CE0FD11D0FB6F894DEBF0FBECDBF60
S10B1040ED010895F894FFCFBF
S1131048F600FA00FE00020106010A010E0125302D
S113105832640042544C20544B48544E204E484F5E
S11310684D313700253032782F253032782F25300E
S11310783278202533732000253032783A253032EF
S1131088783A253032782000204F4E20004F4646CB
S113109800686F75723A20007365636F6E643A2056
S11310A800796561723A20006D6F6E74683A2000A9
S11310B8646174653A20007468753A2000253032FA
S11310C87300414C484F55523A2000414C6D696EAB
S11310D87574653A200053756E004D6F6E00547533
S11310E86500576564005468750046726900536169
S10510F874007E
S9030000FC
